:1000000016C1000030C100002EC100002CC100004C
:100010002AC1000028C1000026C1000024C1000040
:1000200022C1000020C100000C9432081CC1000055
:100030001AC1000018C1000016C1000014C1000060
:1000400012C1000010C100000EC100000CC1000070
:100050000AC1000008C1000006C1000004C1000080
:1000600002C100003AC10000FEC00000FCC0000058
:10007000FAC00000F8C00000F6C00000F4C00000A4
:10008000F2C00000F0C00000EEC00000ECC00000B4
:10009000EAC00000E8C00000E6C00000E4C00000C4
:1000A000E2C00000E0C00000DEC000001F094109FE
:1000B0002D0A41092D0A8609A8092D0AFA090C0AF8
:1000C0001A033000300030003000300030003000C3
:1000D0003000300030003000310000001E035000BE
:1000E00072006F00200043006F006E007400720009
:1000F0006F006C006C0065007200000026034E006B
:1001000069006E00740065006E0064006F002000DE
:1001100043006F002E002C0020004C00740064008F
:100120002E0000000403090409022900010100A0B7
:10013000FA09040000020300000009211101000176
:1001400022CB000705020340000807058103400099
:100150000812010002000000407E05092000020193
:10016000020301050115000904A1018530050105FF
:10017000091901290A150025017501950A5500651F
:100180000081020509190B290E150025017501953D
:100190000481027501950281030B01000100A10099
:1001A0000B300001000B310001000B320001000B8D
:1001B00035000100150027FFFF0000751095048130
:1001C00002C00B39000100150025073500463B0130
:1001D00065147504950181020509190F291215008E
:1001E0002501750195048102750895348103060087
:1001F000FF852109017508953F81038581090275F5
:1002000008953F8103850109037508953F91838512
:100210001009047508953F91838580090575089537
:100220003F9183858209067508953F9183C011240B
:100230001FBECFEFDAE0DEBFCDBF11E0A0E0B1E03E
:10024000E6E6F5E102C005900D92AE38B107D9F7A8
:1002500022E0AEE8B1E001C01D92A83CB207E1F790
:1002600004D20C94B10ACCCE8091D901882331F00C
:1002700085EE91E09093F1018093F00108959B0148
:10028000AC01DC01CB01B695A79597958795BC018C
:10029000CD0160587B47814E9F4F0E94600A2150DC
:1002A00031093093CD002093CC0086E08093CA00C2
:1002B00082E08093C80088E18093C900539A5A9ADB
:1002C0000895F89498E088E10FB6F894A895809383
:1002D00060000FBE90936000FFCF1F920F920FB689
:1002E0000F9211242F933F934F935F936F937F93BC
:1002F0008F939F93AF93BF93EF93FF938091CE0023
:100300008093D60110928500109284008091C800DD
:1003100087FF0BC08091CE008093D5018091D601DC
:100320008F3F59F425E332E00AC080918400909118
:1003300085008137924050F319C125EF31E03093A9
:10034000F4012093F3018091F2019091D501891776
:10035000B8F491E0980F9093F2019091C80097FF44
:1003600007C09091CE00F901E80FF11D9083EBCF0B
:1003700040918400509185004137524070F3F6C09F
:100380001092F2018091D601853509F4EFC0A8F4EE
:10039000823209F44BC018F48131A1F1E8C08333F3
:1003A00009F459C0843409F0E2C081E08093D4019B
:1003B0008091D5018093D301DAC0873709F4BAC0A0
:1003C000D0F4863609F0D3C08091F5019091F60102
:1003D0009827892798279093910180939001809185
:1003E000F7019091F80198278927982790938F011A
:1003F00080938E01BCC0883809F45FC08F3F09F438
:1004000044C0B5C08091C80085FFFCCF81E18093D6
:10041000CE008091C80085FFFCCF81E08093CE00A4
:100420008091C80085FFFCCF8EE081C08091C8001C
:1004300085FFFCCF82E28093CE008091C80085FFCB
:10044000FCCF81E08093CE008091D2019091C800D2
:1004500095FFFCCF6CC08091C80085FFFCCF83E383
:100460008093CE008091C80085FFFCCF81E080930F
:10047000CE008091D2019091C80095FFFCCF80936F
:10048000CE0081E08093D70172C081E08093D901D2
:100490008091D5018093D8018091D8018C3018F0DB
:1004A0008BE08093D8014091D80150E065E372E081
:1004B00085EE91E00E94A10A5AC08091D50188235F
:1004C00011F18091F501809300015B9A1092C900AF
:1004D0001092C8001092CA001092CD001092CC0069
:1004E00053985A98A0910001B0E020EA36E841E024
:1004F00050E00E94880AC3DE5B988091C900806842
:100500008093C90034C08091C80085FFFCCF88E883
:100510008093CE008091C80085FFFCCF81E080935E
:10052000CE00809100019091C80095FFFCCF809390
:10053000CE001DC08091C80085FFFCCF87E7809367
:10054000CE008091C80085FFFCCF82E08093CE0072
:100550008091C80085FFFCCF88E08093CE00809119
:10056000C80085FFFCCF1092CE0001C0AADEFF912B
:10057000EF91BF91AF919F918F917F916F915F911B
:100580004F913F912F910F900FBE0F901F90189594
:1005900014BE0FB6F894A89580916000886180938E
:1005A0006000109260000FBE90E080E80FB6F894F3
:1005B00080936100909361000FBE80918100846000
:1005C00080938100A0910001B0E020EA36E841E08C
:1005D00050E09ED754DE8091C90080688093C900A6
:1005E00078948091D7018823E1F31FC50895089579
:1005F00042E361EC81E052D442E360EC82E04EC41D
:1006000081E08093E9008091E80080FD10C30895A7
:1006100082E08093E9008091E80082FF1EC080E4C0
:10062000E2E9F1E0DF011D928A95E9F760E070E010
:100630008091E80085FF09C08091F1006034710568
:10064000B8F781936F5F7F4FF3CF8091E8008B778E
:100650008093E80082E991E0F5C108958091BF029E
:10066000843011F4D5DFCCCF089592DF3BE0E5EE86
:10067000F1E0DF01832F1D928A95E9F781E98093EC
:10068000E5018091E70180688093E70198E090930D
:10069000EA0180E88093EB019093ED018093EE01F5
:1006A0002CE02093EF01EAEDF1E0DF011D923A9595
:1006B000E9F731E93093DA013091DC0130683093A9
:1006C000DC019093DF018093E0019093E20180933D
:1006D000E3012093E401F093F101E093F00160EF76
:1006E00071E084E391E0A5D1B9DFD0D6FDCF0895C4
:1006F000292F332723303105E1F058F4213031051B
:1007000099F02230310599F589E290E028E231E054
:1007100032C02132310531F12232310541F58BEC05
:1007200090E023E631E027C082E190E021E531E06E
:1007300022C099278130910561F040F08230910507
:1007400059F00397A1F4E0ECF0E008C0E4E2F1E036
:1007500005C0ECEFF0E002C0ECEDF0E0849190E039
:100760009F0109C089E090E02AE331E004C080E005
:1007700090E020E030E0FA01318320830895CF92A9
:10078000DF92EF92FF920F931F93CF93DF93CDB73A
:10079000DEB769970FB6F894DEBF0FBECDBF7C0100
:1007A0008B016A01AB016FEF70E0C601D3D680E820
:1007B000E81680E6F80609F45DC0A8F4FDE3EF163C
:1007C000F0E6FF0609F46AC080E5E81680E6F80660
:1007D000E9F0E0E2EE16E0E6FE0609F08FC088E1FF
:1007E000E3E1F1E07AC0F0E1EF16F0E8FF0609F48A
:1007F00065C088E2E81680E8F80609F46BC0E8E90D
:10080000EE16E0E6FE0609F079C038C003301105A7
:1008100008F474C083E0EAE0F1E0D60101900D92A3
:100820008A95E1F70630110508F468C083E0E7E037
:10083000F1E0D601139601900D928A95E1F7093007
:10084000110508F45BC083E0E4E0F1E0D601169600
:1008500001900D928A95E1F70C30110508F44EC015
:10086000D601199683E0E1E0F1E001900D928A95BE
:10087000E1F744C088E1EBE2F1E02FC082E1E3E47C
:10088000F1E0DE01119601900D928A95E1F7A80141
:100890000331110570F142E150E02BC089E1E5E53B
:1008A000F1E0DE01119601900D928A95E1F7A80121
:1008B0000A311105F0F049E150E01BC00731110584
:1008C000E8F082EBF601868B07311105B9F081EA79
:1008D000878B14C088E1EEE6F1E0DE01119601900D
:1008E0000D928A95E1F7A8010931110510F048E150
:1008F00050E0BE016F5F7F4FC60123D669960FB6E9
:10090000F894DEBF0FBECDBFDF91CF911F910F9145
:10091000FF90EF90DF90CF900895CF93DF93909169
:100920007902911115C0FA0190E4ABE7B2E0ED0154
:1009300019929A95E9F780937B0260937C02422F8B
:1009400050E0BF018DE792E0FCD581E08093790211
:10095000DF91CF910895CF93DF93CDB7DEB728977E
:100960000FB6F894DEBF0FBECDBF80917902811122
:1009700013C0198283E08A8386E0EDE0F1E0DE01B6
:10098000139601900D928A95E1F728E0AE014F5F32
:100990005F4F61E081E8C1DF28960FB6F894DEBFB3
:1009A0000FBECDBFDF91CF91089520917902211123
:1009B00009C060917A026D5F60937A022BE0AC010E
:1009C00080E3ABCF0895CF93DF939091790291119B
:1009D0002DC0EA0190E4EBE7F2E0DF011D929A9569
:1009E000E9F791E290937B0290917A029D5F909358
:1009F0007A0290937C02E0917702F0917802019064
:100A0000F081E02D9BE0ADE7B2E001900D929A9568
:100A1000E1F78093880260938902422F50E0BE0183
:100A20008AE892E08ED581E080937902DF91CF91C0
:100A30000895909376028093750270937802609384
:100A4000770289CF5F926F927F928F929F92AF923F
:100A5000BF92CF92DF92EF92FF920F931F93CF93AB
:100A6000DF93CDB7DEB72C970FB6F894DEBF0FBE7D
:100A7000CDBFFC01CDB6DEB680818038C9F461817E
:100A8000643030F4623070F4613061F464DFB4C01B
:100A9000643041F4E0917702F09178028081918195
:100AA00084DFAAC020E040E050E081E836DFA4C047
:100AB000813009F0A1C0613108F49EC062856031C7
:100AC00009F456C008F5633009F491C0A0F4613010
:100AD00099F1623009F08BC00DB71EB783E08983AE
:100AE00098E49A838B836C83ADE0B1E0FE013B9682
:100AF000CE01059627C0643009F079C020E040E0BF
:100B000050E064E083E877C0683309F470C008F00F
:100B10006EC0613209F06BC088E0E6E8F1E0DE010A
:100B2000119601900D928A95E1F728E0AE014F5F92
:100B30005F4F61E280EA5FC021E043E050E061E0A6
:100B400081E859C02D9122938E179F07D9F783E032
:100B50008B8782E08C872CE0AE014F5F5F4F62E0B5
:100B600082E831DF0FB6F8941EBF0FBE0DBF44C040
:100B7000538464847784E72CF12C8DB79EB78E194B
:100B80009F090FB6F8949EBF0FBE8DBFEDB7FEB79D
:100B900031964F01AF01B701852D962DF0DD57013C
:100BA000F5E0AF0EB11C8DB79EB78A199B090FB641
:100BB000F8949EBF0FBE8DBF0DB71EB70F5F1F4FBE
:100BC000EDB7FEB75182F8016182128213827482FE
:100BD0000696A701B401B5D42A2DA80160E180E9E9
:100BE000F2DE0FB6F894DEBE0FBECDBE05C020E02B
:100BF00040E050E080E8E7DE0FB6F894DEBE0FBEBE
:100C0000CDBE2C960FB6F894DEBF0FBECDBFDF91E0
:100C1000CF911F910F91FF90EF90DF90CF90BF90F9
:100C2000AF909F908F907F906F905F900895E0912C
:100C30007502F0917602099580917902811109C0BF
:100C4000E0917702F091780280819181009709F01C
:100C5000ACDE81E08093E9008091E80080FFFCCF6A
:100C600040E050E060E470E08BE792E00AD0811150
:100C7000F7CF8091E8008E778093E8001092790298
:100C80000895CF92DF92EF92FF920F931F93CF932D
:100C9000DF93EC018B017A0155D1811133C0E1144E
:100CA000F10439F0F70180819181081B190BC80FFD
:100CB000D91FC12CD12C0115110519F18091E80023
:100CC00085FD16C08091E8008E778093E800DED322
:100CD000E114F10449F0F70180819181C80ED91E19
:100CE000D182C08285E00EC02DD1882321F30AC0B5
:100CF00089918093F10001501109FFEFCF1ADF0AAB
:100D0000DACF80E0DF91CF911F910F91FF90EF90AC
:100D1000DF90CF9008952091C6023091C702261728
:100D2000370748F06115710539F42091E8002E77F6
:100D30002093E80001C0B901FC0120E061157105B4
:100D400091F18091BF02882309F440C0853009F4F5
:100D50003FC08091E80083FD3DC08091E80082FDA6
:100D60002FC08091E80080FFE9CF2091F3008091AF
:100D7000F20090E0922B6115710551F080349105DD
:100D800038F421912093F100615071090196F3CF5D
:100D900021E08034910509F020E08091E8008E7711
:100DA0008093E800CBCF2111CCCF0AC08091BF0245
:100DB000882361F0853061F08091E80083FD0AC0EE
:100DC0008091E80082FFF2CF80E0089582E00895EC
:100DD00083E0089581E008952091C6023091C70212
:100DE0002617370748F06115710539F42091E8009E
:100DF0002E772093E80001C0B901FC0120E06115C5
:100E0000710599F18091BF02882309F441C08530B2
:100E100009F440C08091E80083FD3EC08091E80065
:100E200082FD30C08091E80080FFE9CF2091F3007F
:100E30008091F20090E0922B6115710559F0803499
:100E4000910540F424912093F1003196615071098D
:100E50000196F2CF21E08034910509F020E08091E5
:100E6000E8008E778093E800CACF2111CBCF0AC06B
:100E70008091BF02882361F0853061F08091E800A5
:100E800083FD0AC08091E80082FFF2CF80E00895E0
:100E900082E0089583E0089581E00895982F9730C7
:100EA00068F59093E900981739F07091EC00209163
:100EB000ED005091F00003C0242F762F50E021FD6B
:100EC00002C09F5FECCF3091EB003E7F3093EB0090
:100ED0003091ED003D7F3093ED003091EB003160BB
:100EE0003093EB007093EC002093ED005093F000F2
:100EF0002091EE0027FDE5CF80E008958F7080936C
:100F0000E90081E008958091C00287FF11C08091BF
:100F1000E80082FD05C08091BF028111F8CF11C0A9
:100F20008091E8008B770BC08091BF02882349F045
:100F30008091E80080FFF8CF8091E8008E77809361
:100F4000E80008952091E4003091E50095E6409195
:100F5000EC00842F817040FF23C08091E80080FD69
:100F60001DC08091BF02882399F0853099F080914F
:100F7000EB0085FD11C04091E4005091E50024177D
:100F8000350729F3915011F09A01E1CF84E00895DB
:100F900082E0089583E0089581E0089580E0089557
:100FA0004091E80042FFDDCF08950F931F93CF9348
:100FB000DF934BD052D0C8EDD0E088818F77888303
:100FC00088818068888388818F7D888319BC10928E
:100FD000BF021092BB021092BD021092BC0200EE42
:100FE00010E0F80180818B7F808388818160888315
:100FF00042E360E080E052DFE1EEF0E080818E7F4E
:101000008083E2EEF0E0808181608083808188606F
:101010008083F80180818E7F8083888180618883CE
:10102000DF91CF911F910F910895E8EDF0E080815D
:101030008F7E8083E7EDF0E080818160808384E0B3
:1010400082BF81E08093BE02B0CFE8EDF0E0808106
:101050008E7F80831092E20008951092DA00109241
:10106000E10008951F920F920FB60F9211242F9353
:101070003F934F935F936F937F938F939F93AF9320
:10108000BF93EF93FF938091E10082FF0AC08091AC
:10109000E20082FF06C08091E1008B7F8093E10037
:1010A000F4D18091DA0080FF1DC08091D80080FFCC
:1010B00019C08091DA008E7F8093DA008091D90088
:1010C00080FF0CC080E189BD82E189BD09B400FECA
:1010D000FDCF81E08093BF0289DA04C019BC109271
:1010E000BF0285DA8091E10080FF18C08091E200A4
:1010F00080FF14C08091E2008E7F8093E200809197
:10110000E20080618093E2008091D8008062809349
:10111000D80019BC85E08093BF02B7D18091E1006F
:1011200084FF2FC08091E20084FF2BC080E189BD45
:1011300082E189BD09B400FEFDCF8091D8008F7D8A
:101140008093D8008091E1008F7E8093E1008091B0
:10115000E2008F7E8093E2008091E20081608093C4
:10116000E2008091BB02882311F084E007C08091E7
:10117000E30087FD02C081E001C083E08093BF02ED
:1011800084D18091E10083FF22C08091E20083FF3F
:101190001EC08091E100877F8093E10082E0809310
:1011A000BF021092BB028091E1008E7F8093E1002C
:1011B0008091E2008E7F8093E2008091E200806166
:1011C0008093E20042E360E080E068DE5ED1FF9160
:1011D000EF91BF91AF919F918F917F916F915F91AF
:1011E0004F913F912F910F900FBE0F901F90189528
:1011F0001F93CF93DF93CDB7DEB7AA970FB6F894BE
:10120000DEBF0FBECDBFE0ECF2E08091F100819334
:1012100022E0E83CF207C9F76ADA8091E80083FF30
:101220001CC18091C0029091C102492F50E04A3008
:10123000510508F012C1FA01EA5AFF4F63C1803824
:1012400081F0823809F009C18091C4028F708093C7
:10125000E9008091EB0085FB882780F91092E90076
:1012600006C08091BC029091BD0291118260909164
:10127000E800977F9093E8008093F1001092F100CE
:10128000C4C0282F2D7F09F0E8C0882319F08230D0
:1012900061F0E3C08091C202813009F0DEC093307A
:1012A00009F080E08093BD022BC08091C2028111C1
:1012B00027C08091C4028F7009F4CFC08093E900E9
:1012C0002091EB0020FF1CC0933021F48091EB00B3
:1012D000806214C09091EB0090619093EB0021E04C
:1012E00030E0A90102C0440F551F8A95E2F74093F0
:1012F000EA001092EA008091EB0088608093EB0096
:101300001092E9008091E800877F82C08111A5C01A
:101310001091C2021F778091E3008078812B809327
:10132000E3008091E800877F8093E800ECDD809106
:10133000E80080FFFCCF8091E30080688093E300A9
:10134000111102C082E001C083E08093BF0285C01A
:101350008058823008F081C08091C2029091C3020F
:101360008C3D53E0950771F583E08A838AE2898397
:101370004FB7F894DE01139620E03EE051E2E32FF0
:10138000F0E050935700E49120FF03C0E295EF7026
:101390003F5FEF708E2F90E0EA3010F0C79601C0EB
:1013A000C0968D939D932F5F243149F74FBF809155
:1013B000E800877F8093E8006AE270E0CE01019642
:1013C000AADC12C0AE014F5F5F4F6091C40290D99A
:1013D000BC01892B09F441C09091E800977F90935C
:1013E000E80089819A81F8DC8091E8008B7780930E
:1013F000E80033C0803889F58091E800877F8093CA
:10140000E8008091BB028093F1008091E8008E7724
:101410008093E80078DD21C081111FC08091C20255
:101420009091C30299270297C4F48091E800877FC6
:101430008093E8008091C2028093BB0264DD8091BA
:10144000BB02811106C08091E30087FD02C081E0EC
:1014500001C084E08093BF02CBD88091E80083FF75
:101460000AC08091E800877F8093E8008091EB00BC
:1014700080628093EB00AA960FB6F894DEBF0FBE91
:10148000CDBFDF91CF911F9108950895CF938091A3
:10149000BF02882399F0C091E900CF709091EC00D1
:1014A000892F817090FD80E8C82B1092E90080910F
:1014B000E80083FD9DDECF70C093E900CF910895D1
:1014C000A1E21A2EAA1BBB1BFD010DC0AA1FBB1F48
:1014D000EE1FFF1FA217B307E407F50720F0A21BBA
:1014E000B30BE40BF50B661F771F881F991F1A9427
:1014F00069F760957095809590959B01AC01BD0151
:10150000CF010895EE0FFF1F0590F491E02D09948F
:1015100009D0A59F900DB49F900DA49F800D911DA3
:1015200011240895A29FB001B39FC001A39F700D25
:10153000811D1124911DB29F700D811D1124911DDB
:101540000895FB01DC0102C001900D924150504012
:10155000D8F70895DC0101C06D9341505040E0F789
:061560000895F894FFCF8E
:1015660005AAAAAAAAAAAADDDDDD0AB9E679054472
:10157600C6B565E6FF3A003900004000400040F776
:10158600FFFCFF0000E73BE73BE73B50FD0000C6E2
:101596000F0F30619630F3D41454411554C7799C1B
:1015A6003336630F30619630F3D41454411554C763
:1015B600799C333663BA156211B87F29065BFFE75B
:1015C6007E0E36569E8560FF323232FFFFFFBEFF2B
:1015D6003E00F001004000400040FEFFFEFF080014
:0E15E600E73BE73BE73B0100FF000300050188
:00000001FF
